:100000000C94DA000C9493090C946C090C94450937
:100010000C941E090C9402010C9402010C94F70834
:100020000C9402010C945B0C0C94BA090C94290AF0
:100030000C9402010C9402010C9402010C94020134
:100040000C9402010C9402010C9402010C94020124
:100050000C9402010C9402010C9402010C94AD0862
:100060000C9402010C9402010C9402010C94020104
:100070000C9402010C9402010C9402010C940201F4
:100080000C9402010C9402010C9402010C940201E4
:100090000C9402010C9402010C9402010C940201D4
:1000A0000C9402010C94D70C0C940201080B000272
:1000B0000202000009040000010202000005240001
:1000C0001001052401010104240206052406000193
:1000D0000705810310004009040100020A00000026
:1000E00007050202400000070583024000000403E8
:1000F000090412010002EF020140FB1F002300016E
:1001000001020301506F6C6F6C7520436F72706F4A
:10011000726174696F6E00506F6C6F6C7520412D49
:100120005374617220333255340000000000240003
:1001300027002A002D0030000000000025002800C4
:100140002B002E00310000000000230026002900B3
:100150002C002F000404040404030405020202021C
:100160000403020202020606060606060404020250
:100170000204040408020110408040102040804026
:1001800080080204018040201002011080102040ED
:1001900040200000000200090F0000030401000CD1
:1001A000000000000000000000000000000000004F
:1001B0000000370D11241FBECFEFDAE0DEBFCDBF48
:1001C00013E0A0E0B1E0EAE8FEE202C005900D9283
:1001D000AE33B107D9F724E0AEE3B3E001C01D921E
:1001E000A037B207E1F710E0CAEDD0E004C02197D4
:1001F000FE010E94E114C93DD107C9F70E944A0ED1
:100200000C9443170C9400004F925F926F927F9270
:100210008F929F92AF92BF92CF92DF92EF92FF9216
:10022000CF93DF93CDB7DEB728970FB6F894DEBF34
:100230000FBECDBF4B015C012D833E834F8358879A
:1002400060916E0470916F0490E080E00E9415163A
:1002500020E030E04AE754E40E946D156B017C0118
:100260004090660450906704609068047090690440
:10027000A50194010E94CC16A30192010E946D1564
:100280000E94DF1569837A838B839C8323EC35EF8F
:1002900048E450E460916A0470916B0480916C04AE
:1002A00090916D040E94CC1620E030E044E353E4CA
:1002B0000E946D154B015C012D813E814F81588557
:1002C000C701B6010E94CC169B01AC01C501B40167
:1002D0000E94CC16A30192010E946D150E94DF15A9
:1002E0006B0169817A816C197D09072E000C880BDE
:1002F000990B0E9417166093F9037093FA03809389
:10030000FB039093FC038091F603813081F01092FF
:100310001D0410921E0410921F041092200480915C
:10032000030490910404909302048093010481E0FB
:100330008093F60389819A81C80ED91EB601DD0C1F
:10034000880B990B0E941716609332047093330444
:10035000809334049093350480912F04813081F090
:100360001092560410925704109258041092590497
:1003700080913C0490913D0490933B0480933A0417
:1003800081E080932F0428960FB6F894DEBF0FBE4D
:10039000CDBFDF91CF91FF90EF90DF90CF90BF90D6
:1003A000AF909F908F907F906F905F904F90089547
:1003B000FC0180918B03882311F13FB7F89482E010
:1003C0008093E9002091F200822F90E01816190620
:1003D00014F481E090E0882339F0289844E64093B3
:1003E0008A034091F1004083222339F02091F200EA
:1003F000211103C02BE62093E8003FBF08958FEF43
:100400009FEF08952FB7F89483E08093E9009091CF
:10041000E800892F807295FF04C09091F20080E47B
:10042000891B2FBF08958091820381110DC082E046
:1004300080937E0384E080937F0310928103109267
:10044000800381E0809382038EE793E008958150DA
:100450008F3008F047C0E82FF0E0EF5CFD4F0C94C0
:10046000E1144E025202400246024A027202720235
:10047000720255025B025F026302690272026D0240
:10048000809180008F778093800008958091800014
:100490008F7DF9CF80918000877FF5CF84B58F77EE
:1004A00084BD089584B58F7DFBCF809190008F77B8
:1004B000809390000895809190008F7DF9CF809176
:1004C0009000877FF5CF8091C0008F778093C00028
:1004D00008958091C0008F7DF9CF8091C200877F01
:1004E0008093C2000895CF93DF93282F30E0F90165
:1004F000EE56FE4F8491F901ED58FE4FD491F9016B
:10050000EC5AFE4FC491CC23A1F081110E94270226
:10051000EC2FF0E0EE0FFF1FEA5BFE4FA591B491C8
:10052000EC91ED2381E090E009F480E0DF91CF9140
:10053000089580E090E0FACF1F93CF93DF93282FA8
:1005400030E0F901EE56FE4F8491F901ED58FE4F6F
:10055000D491F901EC5AFE4FC491CC23A9F0162F87
:1005600081110E942702EC2FF0E0EE0FFF1FE85CE4
:10057000FE4FA591B4918FB7F894EC91111108C07A
:10058000D095DE23DC938FBFDF91CF911F9108952B
:10059000DE2BF8CFCF93DF9390E0FC01ED58FE4FB8
:1005A00024918C5A9E4FFC0184918823D1F090E0D5
:1005B000880F991FFC01E65DFE4FA591B491FC01E7
:1005C000E85CFE4FC591D49161110EC09FB7F894BD
:1005D0008C91E22FE0958E238C932881E223E8838F
:1005E0009FBFDF91CF9108958FB7F894EC91E22BE4
:1005F000EC938FBFF6CF3FB7F89480917A03909138
:100600007B03A0917C03B0917D0326B5A89B05C018
:100610002F3F19F00196A11DB11D3FBFBA2FA92F81
:10062000982F8827BC01CD01620F711D811D911D7E
:1006300042E0660F771F881F991F4A95D1F70895EA
:100640008F929F92AF92BF92CF92DF92EF92FF92E2
:100650004B015C010E94FB026B017C010E94FB02CA
:100660006C197D098E099F09683E734081059105CB
:10067000A8F321E0821A9108A108B10888EEC80EFB
:1006800083E0D81EE11CF11C81149104A104B10483
:1006900029F7FF90EF90DF90CF90BF90AF909F90A1
:1006A0008F9008958091F603811104C080912F04EA
:1006B000882339F061E070E080E090E00E94200340
:1006C000F1CF089508954091500350915103209126
:1006D0004E0330914F0342175307B4F49091E80052
:1006E0009570E1F39091E80092FD19C08093F100BC
:1006F000809150039091510301968F739927892B14
:1007000019F48EEF8093E80080915003909151038B
:100710000196909351038093500381E0089580E007
:100720000895EF92FF920F931F93CF93DF93F82ECC
:10073000192FE62E042F81E0860F880F0E94630395
:1007400083E00E946303CF2DD12FEC0EFD2EF11C10
:10075000CE15DF05B9F007FF13C0FE0184910E949A
:100760006303182F80E00E94630381232196811187
:10077000EFCFDF91CF911F910F91FF90EF900895F0
:100780008881EDCF81E0F5CFDF92EF92FF920F935A
:100790001F93CF93DF93D82E8A01EB017B01E40EE8
:1007A000F51ECE15DF0559F0D7FE12C0FE0184916B
:1007B0000E94630321968111F4CF0FEF1FEFC80150
:1007C000DF91CF911F910F91FF90EF90DF900895EF
:1007D0008881EECF0F931F93CF93DF931F92CDB7F6
:1007E000DEB782E0898342E450E06CEA70E080E8A2
:1007F0000E94C4030E941302DC0112960D911C9109
:100800000115110589F0D801ED91FC910280F38169
:10081000E02DBE016F5F7F4FC801099597FD04C0B1
:10082000F80100851185ECCF89810F90DF91CF9180
:100830001F910F910895615030F02091F100FC015B
:1008400020830196F8CF289884E680938A03089540
:100850008F929F92AF92BF92CF92DF92EF92FF92D0
:100860000F931F93CF93DF936C017B018A018091DB
:100870000B01882309F45CC080918B03882309F461
:1008800057C08091540380FF05C08091E0008260D2
:100890008093E000E801B12C8AEFA82E93E0892E26
:1008A0002AE3922E209711F4BB20D9F10E94020274
:1008B00081110AC0AA94AA20D9F161E070E080E019
:1008C00090E00E942003EECF8C171D0611F00CF073
:1008D0008C2F9FB7F8948092E9002091E80025FDC5
:1008E00002C09FBFDFCF282F30E0C21BD30BF70120
:1008F000815020F041914093F100FACFE20EF31EB7
:10090000BB2021F09092E800B12CEBCF8091E80061
:1009100085FDE7CF9092E800BB24B394209709F3BC
:10092000F3CF5D9884E680935303101611063CF0D4
:1009300081E090E0F6019383828310E000E0C8013B
:10094000DF91CF911F910F91FF90EF90DF90CF90AB
:10095000BF90AF909F908F900895CF93DF931F9299
:10096000CDB7DEB76983DC01ED91FC910280F381A4
:10097000E02D41E050E0BE016F5F7F4F09950F9081
:10098000DF91CF91089583E08093E9008091F20098
:10099000882319F08AE38093E80008950E940202F8
:1009A00090E00895CF93DF931F92CDB7DEB7FC019F
:1009B0008485958597FD08C02FEF3FEF3587248705
:1009C0000F90DF91CF910895CE0101960E94D8013A
:1009D000019719F4898190E0F3CF8FEF9FEFF0CF6B
:1009E0000F931F93CF93DF931F92CDB7DEB78C0188
:1009F000FC018485958597FF0BC0CE0101960E946E
:100A0000D801019771F4898190E0F8019587848776
:100A1000F801848595850F90DF91CF911F910F91FB
:100A200008958FEF9FEFF1CFFC018485958597FDA9
:100A30000BC09FB7F89482E08093E9008091F200A8
:100A40009FBF90E0019608959FB7F89482E080934D
:100A5000E9008091F2009FBF90E00895F89441E092
:100A600040936800ABE6B0E09C91E82FF0E021E015
:100A700030E001C0220F8A95EAF7892F822B8C93F0
:100A8000EE0FFF1FE25CFC4F718360834BBB9091C4
:100A9000DC03822F809589238093DC0383B19091BE
:100AA000DC038223892B8093DC03789408954F9292
:100AB0005F926F927F928F929F92AF92BF92CF92EE
:100AC000DF92EF92FF92CF93DF93EC016B817C81F9
:100AD000072E000C880B990B0E9417169B01AC0186
:100AE0006D817E818F8198850E94FB146B017C0152
:100AF000C9A2DAA2EBA2FCA229A53AA54BA55CA546
:100B00000E94FC144B015C0189A69AA6ABA6BCA668
:100B10004DA45EA46FA478A820E030E0A901C30131
:100B2000B2010E94C71618169CF4A50194015F77C4
:100B3000C301B2010E94681587FF0AC0A701960190
:100B4000C501B4010E94FB1469A77AA78BA79CA7D3
:100B50002DA13EA14FA158A5C701B6010E94FB14CB
:100B60004B015C01CDA2DEA2EFA2F8A629A53AA511
:100B70004BA55CA5698D7A8D8B8D9C8D0E94CC16C2
:100B80002B013C012D893E894F89588DC701B60143
:100B90000E94CC169B01AC01C301B2010E94FC145F
:100BA0006B017C012D8D3E8D4F8D58A1C501B40187
:100BB0000E94CC169B01AC01C701B6010E94FC1437
:100BC0006DAB7EAB8FAB98AF0E94DF15E881F981EA
:100BD0000190F081E02DCE01DF91CF91FF90EF9059
:100BE000DF90CF90BF90AF909F908F907F906F904D
:100BF0005F904F900994FC01F894878590897894D0
:100C0000680F791F7287618782E082830895CF928F
:100C1000DF92EF92FF926B017C0120E030E0A901AE
:100C20000E94C71620E030E040E751EC181624F48B
:100C300020E030E040E751E460E070E0CB010E944A
:100C4000040123EC35EF48E450E460916A047091AC
:100C50006B0480916C0490916D040E94CC1620E08E
:100C600030E044E353E40E946D15A70196010E9411
:100C7000CC1620916604309167044091680450912D
:100C800069040E946D150E94DF156B0166277727A6
:100C90006C197D0984EF93E00E94FB05B6018DE29B
:100CA00094E00E94FB05FF90EF90DF90CF900C94B2
:100CB00052038F929F92AF92BF92CF92DF92EF92A8
:100CC000FF920F934B015C0169017A01E894F7F8F8
:100CD00020E030E0A9010E94C716181624F0F7FAA8
:100CE000F094F7F8F09420E030E0A901C701B601D4
:100CF0000E940401209166043091670440916804C9
:100D000050916904C501B4010E946D150E94DF1560
:100D10006B0184EF93E00E94FB05B6018DE294E045
:100D20000E94FB05002359F00F91FF90EF90DF9098
:100D3000CF90BF90AF909F908F900C9452030F91E3
:100D4000FF90EF90DF90CF90BF90AF909F908F90EB
:100D5000089520E077FF04C071956195710921E045
:100D6000FC0183859485681779070CF4CB01909377
:100D7000890080938800222319F0299A219A0895E6
:100D80002998FCCF20E077FF04C071956195710927
:100D900021E0FC0183859485681779070CF4CB0169
:100DA00090938B0080938A00222319F02A9A229A2A
:100DB00008952A98FCCFCF93DF93C4EFD3E01A8233
:100DC00070E060E0CE010E94C2061BAE70E060E001
:100DD0008DE294E0DF91CF910C94A906CF93DF933D
:100DE000EC0189899A8950E070E02B893C89AF85B4
:100DF000B8898427952726273727821B930B8A0FCC
:100E00009B1F988B8F877A8B698B5C8B4B8B8A812E
:100E1000823089F42F85388989859A852817390782
:100E200051F4E881F9810190F081E02D70E060E0FB
:100E3000CE0109951A82DF91CF9108956CB1262FCA
:100E400030E0359527953595279583B1422F417030
:100E5000682F70E094E0759567959A95E1F76227A1
:100E6000617084EF93E00C94EE064FB141706CB169
:100E700066FB662760F964278DE294E00C94EE0629
:100E80008091DE030E947302892B59F00E94FB02BD
:100E90006093E8037093E9038093EA039093EB0374
:100EA00008950E94FB026093EC037093ED0380931E
:100EB000EE039093EF038091DD0382608093DD0366
:100EC0000895FC0101900020E9F73197AF01481B1C
:100ED000590BBC018CE893E00C9428048F929F92EC
:100EE000AF92BF920F931F93CF93DF93CDB7DEB72F
:100EF000A1970FB6F894DEBF0FBECDBF19A2423046
:100F000008F44AE08E010F5D1F4F842E912CB12C06
:100F1000A12CA50194010E949C14E62FB901CA01DD
:100F2000EA30F4F4E05DD801EE938D01232B242BFD
:100F3000252B79F790E080E0109719F0CD010E9401
:100F40006107A1960FB6F894DEBF0FBECDBFDF914B
:100F5000CF911F910F91BF90AF909F908F90089568
:100F6000E95CE1CFCF93DF930E946107EC018BE452
:100F700091E00E9461078C0F9D1FDF91CF91089532
:100F80004F925F926F927F928F929F92AF92BF9299
:100F9000CF92DF92EF92FF920F931F93CF936B014B
:100FA0007C01742EAC019B010E943917882399F0B3
:100FB0008EE491E0CF911F910F91FF90EF90DF9021
:100FC000CF90BF90AF909F908F907F906F905F90E9
:100FD0004F900C94610746015701E894B7F82FEF42
:100FE0003FEF4FE75FE7C501B4010E943917811158
:100FF0000DC02FEF3FEF4FE75FE7C501B4010E943F
:10100000681518161CF482E591E0D4CF2FEF3FEF5E
:101010004FE75FE4C701B6010E94C71618161CF41B
:1010200086E591E0C7CF2FEF3FEF4FE75FECC701B9
:10103000B6010E94681587FDF3CF20E030E0A901DA
:10104000C701B6010E94681510E000E087FF0AC0E2
:101050006DE28CE893E00E94AD048C01F7FAF09405
:10106000F7F8F094C0E060E070E080E09FE37C1669
:1010700041F020E030E040E251E40E946D15CF5F86
:10108000F6CFA70196010E94FC142B013C010E949F
:10109000E6154B015C014AE00E946E077C01E00E00
:1010A000F11ECC23C1F1C501B4010E9415169B01AC
:1010B000AC01C301B2010E94FB144B015C016EE262
:1010C0008CE893E00E94AD04E80EF91EC15018F1BF
:1010D00020E030E040E251E4C501B4010E94CC16AA
:1010E0002B013C010E94E6154B01B12CA12C4AE0DA
:1010F000C501B4010E946E07E80EF91EC501B401D6
:101100000E9415169B01AC01C301B2010E94FB14A1
:101110004B015C01DBCFC701CF911F910F91FF9075
:10112000EF90DF90CF90BF90AF909F908F907F9087
:101130006F905F904F900895CF93DF9342E00E94AD
:10114000C007EC018BE491E00E9461078C0F9D1FAA
:10115000DF91CF9108950E943E171F920F920FB614
:101160000F9211242F933F938F939F93AF93BF932D
:101170008091760390917703A0917803B0917903E1
:101180003091750323E0230F2D3758F50196A11DEB
:10119000B11D209375038093760390937703A093FA
:1011A0007803B093790380917A0390917B03A091A7
:1011B0007C03B0917D030196A11DB11D80937A033C
:1011C00090937B03A0937C03B0937D03BF91AF9179
:1011D0009F918F913F912F910F900FBE0F901F9075
:1011E000189526E8230F0296A11DB11DD2CF1F929C
:1011F0000F920FB60F9211242F933F934F935F934B
:101200006F937F938F939F93AF93BF93EF93FF93CE
:10121000E0911401F09115010995FF91EF91BF91B3
:10122000AF919F918F917F916F915F914F913F917E
:101230002F910F900FBE0F901F9018951F920F9235
:101240000FB60F9211242F933F934F935F936F9399
:101250007F938F939F93AF93BF93EF93FF93E0910F
:101260001201F09113010995FF91EF91BF91AF9198
:101270009F918F917F916F915F914F913F912F91AE
:101280000F900FBE0F901F9018951F920F920FB6E0
:101290000F9211242F933F934F935F936F937F93FC
:1012A0008F939F93AF93BF93EF93FF93E0911001C0
:1012B000F09111010995FF91EF91BF91AF919F912D
:1012C0008F917F916F915F914F913F912F910F90EF
:1012D0000FBE0F901F9018951F920F920FB60F928E
:1012E00011242F933F934F935F936F937F938F932B
:1012F0009F93AF93BF93EF93FF93E0910E01F09113
:101300000F010995FF91EF91BF91AF919F918F913F
:101310007F916F915F914F913F912F910F900FBEF1
:101320000F901F9018951F920F920FB60F921124D5
:101330002F933F934F935F936F937F938F939F93DD
:10134000AF93BF93EF93FF93E0910C01F0910D01E8
:101350000995FF91EF91BF91AF919F918F917F91EF
:101360006F915F914F913F912F910F900FBE0F9012
:101370001F9018951F920F920FB60F9211248F9302
:101380009F938091E1009091E100937F9093E10021
:1013900083FF0FC01092E90091E09093EB00109250
:1013A000EC0092E39093ED0010928B0398E0909301
:1013B000F00082FF22C093E09093E9009091F20048
:1013C000992319F09AE39093E8009091530399239D
:1013D00041F090915303915090935303911101C0A8
:1013E0005D9A90918A03992341F090918A039150DC
:1013F00090938A03911101C0289A84FF18C08091AC
:10140000E2008E7E81608093E2008091E1008F7E19
:101410008093E100809154038E7E80618093540319
:101420009F918F910F900FBE0F901F90189580FF86
:10143000F7CF8091E2008E7E80618093E200809100
:10144000E1008E7E8093E100809154038E7E816066
:10145000E5CF1F920F920FB60F921124CF92DF9219
:10146000EF92FF920F931F932F933F934F935F93AE
:101470006F937F938F939F93AF93BF93EF93FF935C
:10148000CF93DF93CDB7DEB76C97DEBFCDBF1092A1
:10149000E9008091E80083FF25C068E0CE01459611
:1014A0000E941B0482EF8093E8008D8987FF39C07A
:1014B0009091E80090FFFCCF982F907609F034C10E
:1014C0009E894F89588D2F89F88C911131C08038B1
:1014D00061F5809155038093F1001092F1008EEF39
:1014E0008093E8006C960FB6F894DEBF0FBECDBFB8
:1014F000DF91CF91FF91EF91BF91AF919F918F912C
:101500007F916F915F914F913F912F911F910F911B
:10151000FF90EF90DF90CF900F900FBE0F901F9035
:1015200018959EEF9093E800C7CF1092F100D5CFA9
:10153000913059F48111D3CF4130510581F680911A
:1015400055038D7F80935503CACF933049F48111A1
:10155000C6CF4130510519F6809155038260F2CF14
:10156000953041F48091E80080FFFCCF2068209303
:10157000E300B5CF963009F0A9C00B8D1C8D22E099
:101580001092E9001092510310925003F2122EC0F3
:1015900010924F0310924E030E94EA031F8299E0BB
:1015A0009983FA8291E09E8390EA98879AEF9987CF
:1015B0002091500330915103275F3F4F3C832B8391
:1015C0008D831092E90010925103109250031093F2
:1015D0004F0300934E0349E050E0BE016F5F7F4F21
:1015E00080E00E94C4030E94EA0379CF10934F0366
:1015F00000934E030E941302DC0112960D911C9180
:101600000115110509F451C1D801ED91FC91048037
:10161000F581E02DBE016B5E7F4FC80109950097F3
:1016200009F03EC1F80100851185EACFF3E0FF1211
:101630000EC08F89882309F440C0823061F440E8ED
:1016400062E187E191E00E949103811148CF81E23C
:101650008093EB0047CF813029F440E862E184E0D9
:1016600091E0F1CF833099F70E941302DC011296CA
:10167000ED90FC908E010F5F1F4F6801E114F104A3
:1016800079F0D701ED91FC910680F781E02DB8014A
:10169000C7010995080F111DF701E084F184EECF11
:1016A000D8011C92F60101900020E9F73197BF01A3
:1016B0006C197D0940E0C601C6CF6EEE70E0FB01FB
:1016C000449150E080E80E94C40309CF973009F4A8
:1016D000BECF983021F481E08093F10000CF9930A3
:1016E00009F0FDCE837009F0B2CFEDE1F1E081E0C9
:1016F00031E096E32191222371F08093E900309349
:10170000EB00DF0111972C912093EC009093ED00FA
:101710008F5F873079F78EE78093EA001092EA00B6
:101720008F8980938B03DBCE8B8D9C8D1092E9008B
:10173000109251031092500390934F0380934E03E5
:10174000898D811192C08E899D89913A49F48132A7
:1017500009F07DCF47E050E064E071E080E0B3CF76
:10176000913209F074CF833269F48F89988DB0E09B
:10177000A0E08093000190930101A0930201B09337
:101780000301ADCE803269F48091E80082FFFCCF86
:1017900067E084E091E00E941B048BEF8093E800F7
:1017A0009ECE823209F09BCE8F8980930B01EEEFA3
:1017B000FFE7859194918B3F9C4D51F1E0E0F8E07B
:1017C0008091040190910501A0910601B09107015B
:1017D000803B9440A105B105F1F480910B0180FD9F
:1017E0001AC0EE3F8AE0F80789F587E797E791830B
:1017F0008083809160008093520388E19BE00FB664
:10180000F894A895809360000FBE9093600067CE17
:10181000EEEFFAE0D5CF808191818737974709F0C5
:101820005ECEA89580916000886180936000809171
:10183000520380936000EE3F2AE0F20789F0809126
:10184000FE0A9091FF0A9183808349CE8081918125
:101850008737980751F29093FF0A8093FE0AC5CF0D
:101860001092FF0A1092FE0A3ACE0E941302DC0187
:1018700012960D911C910115110509F4E8CED801BD
:10188000ED91FC910190F081E02DBE016B5E7F4FE8
:10189000C8010995811123CEF80100851185EBCF90
:1018A000181619060CF41BCED2CEF1E0FF12BECEF4
:1018B00062EF70E004CF1F920F920FB60F921124C7
:1018C0002F933F934F935F936F937F938F939F9348
:1018D000AF93BF93EF93FF93CF93DF9300D01F920B
:1018E000CDB7DEB783B1898389819091DC038927E5
:1018F0008A8380916B009A8189238B838B8180FFFF
:1019000005C0E0913E03F0913F0309958B8181FF73
:1019100005C0E0914003F091410309958B8182FF5E
:1019200005C0E0914203F091430309958B8183FF49
:1019300005C0E0914403F091450309958B8184FF34
:1019400005C0E0914603F091470309958B8185FF1F
:1019500005C0E0914803F091490309958B8186FF0A
:1019600005C0E0914A03F0914B0309958B8187FFF5
:1019700005C0E0914C03F0914D0309958981809356
:10198000DC030F900F900F90DF91CF91FF91EF91BB
:10199000BF91AF919F918F917F916F915F914F9187
:1019A0003F912F910F900FBE0F901F9018951F928F
:1019B0000F920FB60F9211242F933F934F935F9383
:1019C0006F937F938F939F93AF93BF93EF93FF9307
:1019D0008091030490910404209101043091020449
:1019E000AC01421B530B5093F8034093F7039093C1
:1019F00002048093010480913C0490913D04209165
:101A00003A0430913B04AC01421B530B5093310418
:101A10004093300490933B0480933A048091F60302
:101A2000813021F08091F603823021F484EF93E03D
:101A30000E94570580912F04813021F080912F045E
:101A4000823021F48DE294E00E945705FF91EF91DE
:101A5000BF91AF919F918F917F916F915F914F91C6
:101A60003F912F910F900FBE0F901F901895CF931D
:101A7000DF93ECE8F3E01382128288EE93E0A0E0BB
:101A8000B0E084839583A683B78381E391E091835B
:101A900080838FEF9FEF9587848783B18093DC03EA
:101AA000E4EFF3E012821482138215821682178209
:101AB0001086128611862CE231E034872387168641
:101AC0001586108A1786128A118A148A138A40E0B2
:101AD00050E060EA70E4458B568B678B708F80E036
:101AE00090E0A0E0BFE3818F928FA38FB48F158E1B
:101AF000168E178E10A211A212A213A214A215A262
:101B000016A217A210A611A612A613A614A615A611
:101B100016A617A610AA11AA12AA13AA14AA15AAE1
:101B200016AA17AA10AEC9E4D1E0D183C08313AEC0
:101B300015AE14AE10923204109233041092340495
:101B40001092350410923704109236043093390401
:101B50002093380410923B0410923A0410923D04F2
:101B600010923C0410923F0410923E0410924104E3
:101B70001092400440934204509343046093440401
:101B8000709345048093460490934704A0934804BF
:101B9000B093490410924A0410924B0410924C04E2
:101BA00010924D0410924E0410924F041092500463
:101BB0001092510410925204109253041092540443
:101BC0001092550410925604109257041092580423
:101BD0001092590410925A0410925B0410925C0403
:101BE00010925D0410925E0410925F0410926004E3
:101BF00010926104109262041092630410926404C3
:101C00001092650483E491E092AF81AF8EED95E38D
:101C1000AAE7BCE38093660490936704A0936804EA
:101C2000B093690486E696E6AEEEB0E480936A046B
:101C300090936B04A0936C04B0936D0480E190E0EA
:101C400090936F0480936E04EDEDF3E010821382A5
:101C50001482158216828AE090E0A0E0B0E08783CB
:101C60009087A187B28713861486158616861786F5
:101C7000108A118A128A80E090E0A6ECB2E4838B8D
:101C8000948BA58BB68B8BE0818384E08283DF917C
:101C9000CF910895789484B5826084BD84B58160C5
:101CA00084BD85B5826085BD85B5816085BD809127
:101CB0006E00816080936E0010928100809181009F
:101CC0008260809381008091810081608093810097
:101CD000809180008160809380008091910082607B
:101CE0008093910080919100816080939100809118
:101CF00090008160809390008091C1008460809307
:101D0000C1008091C10082608093C1008091C100B8
:101D100081608093C1008091C30081608093C30083
:101D20008091C00082608093C0008091C200816079
:101D30008093C20080917A00846080937A008091C1
:101D40007A00826080937A0080917A00816080932B
:101D50007A0080917A00806880937A0010928B03D9
:101D600010925503109254038091D70081608093A4
:101D7000D70080EA8093D80089B5806189BD89B594
:101D8000826089BD09B400FEFDCF61E070E080E0B3
:101D900090E00E9420038091D8008F7C8061809326
:101DA000D8008091E000807F8093E0008091E10086
:101DB0008E7E8093E1008DE08093E200559A209A18
:101DC0008FEF9FEF90939903809398038BE591E0B9
:101DD0000E94B2072E98269A2D98259A2A98229A20
:101DE0002998219A2F98279AF8948AEA809380005C
:101DF00089E18093810084EA91E090938700809349
:101E00008600109289001092880010928B00109228
:101E10008A0010928D0010928C0078948AE591E0EF
:101E20000E94B20789E691E00E94B20724982C9A9A
:101E30006A98729A6E98769A8098889A6EE177E09E
:101E400084E00E942E0585E397E09093150180932E
:101E5000140180916A008F7C806180936A00EE9A01
:101E60006CB1262F30E0359527953595279583B1B0
:101E7000422F4170682F70E034E0759567953A9570
:101E8000E1F76227617084EF93E00E94EE06F89418
:101E900080910304909104041092040410920304AE
:101EA000109202041092010478946CB1262F30E055
:101EB000359527953595279583B1422F4170682F29
:101EC00070E054E0759567955A95E1F76227617067
:101ED0008DE294E00E94EE06F89480913C0490918B
:101EE0003D0410923D0410923C0410923B04109269
:101EF0003A04789488E691E00E94B207F894109230
:101F0000C0008BE08093C1001092C2001092C30009
:101F100089EF8093D10084E080937200789440E050
:101F200050E060EA70E44093090450930A0460931F
:101F30000B0470930C0410921D0410921E04109256
:101F40001F041092200480E090E0A0E0BFE38093A3
:101F50000D0490930E04A0930F04B09310044093CB
:101F600042045093430460934404709345041092D8
:101F700056041092570410925804109259048093FA
:101F8000460490934704A0934804B093490460E04A
:101F90008091DE030E94CA028091DE03843018F033
:101FA000873009F0ADC088E791E00E94B2078091C8
:101FB000DE03882309F496C0813009F062C080E412
:101FC00097E09093130180931201809169008F73C1
:101FD000806480936900EB9A61E08091DF030E9446
:101FE000CA0260E085E10E94CA0260E086E10E94C8
:101FF000CA0281E090E0909317018093160101E0FE
:1020000020E030E040E85FE3CA01B9010E945906D0
:102010008FEA91E00E94B20786EB91E00E94B2073E
:1020200061E08DE00E949C021092F60370E060E097
:1020300084EF93E00E94C20610922F0470E060E0EB
:102040008DE294E00E94A906C2E0D0E083E0282E51
:10205000312C80911601909117018330910509F47C
:102060005EC10CF060C08130910509F466C0029732
:1020700009F492C080E090E0892B59F30E9400009F
:10208000E8CF823071F480E497E090930F01809361
:102090000E0180916900837F846080936900E99AD2
:1020A0009BCF833071F480E497E090930D0180938F
:1020B0000C01809169008C7F816080936900E89AAF
:1020C0008BCF873009F088CF80E497E0909315019B
:1020D0008093140180916A008F7C806180936A00F4
:1020E000EE9A7ACF80E497E09093110180931001EB
:1020F000809169008F7C806180936900EA9A6CCF3F
:1021000082E991E00E94B207E091DE03E8508FEF90
:10211000EA3020F4F0E0ED5DFE4F808160E477E08E
:102120000E942E0559CF8430910509F433C10597DB
:1021300009F0A0CF0E94DB069DCF8FEB91E00E94BB
:10214000B2071092740310927303109272031092EC
:102150006E0310926F03109270031092710310922D
:102160006A0310926B0310926C0310926D0310922D
:10217000660310926703109268031092690310922D
:102180006203109263031092640310926503D0936C
:102190001701C09316016ECF8BE491E00E94610796
:1021A0008BEC91E00E94B2078091DD0381FF2EC08D
:1021B000F8948091EC039091ED03A091EE03B0911F
:1021C000EF034091E8035091E9036091EA037091B5
:1021D000EB03841B950B2091DD032D7F2093DD0302
:1021E0007894009799F0BC0190E080E00E94151669
:1021F00020E030E048E652E40E946D156093F00361
:102200007093F1038093F2039093F3038091DE03C4
:102210000E947302892B99F02FB7F894809176036E
:1022200090917703A0917803B09179032FBF8093A9
:10223000E0039093E103A093E203B093E3032FB78D
:10224000F8948091760390917703A0917803B091F0
:1022500079032FBF4091E0035091E1036091E203C5
:102260007091E303841B950BA60BB70B4091E4031D
:102270005091E5036091E6037091E7038417950799
:10228000A607B707A8F1F8941092E8031092E903A3
:102290001092EA031092EB031092EC031092ED03FC
:1022A0001092EE031092EF031092DD0378942FB793
:1022B000F8948091760390917703A0917803B09180
:1022C00079032FBF8093E0039093E103A093E2038F
:1022D000B093E30361E08091DF030E949C0283E7F7
:1022E00090E00197F1F760E08091DF030E949C028B
:1022F0008091DD038091F0039091F103A091F203AE
:10230000B091F30380935E0390935F03A093600307
:10231000B09361033092170120921601ABCE87ED86
:1023200091E00E94B2072DE233E949EC5EE360914F
:102330005E0370915F0380916003909161030E943E
:10234000CC166B017C01C0925A03D0925B03E092E1
:102350005C03F0925D0383EE91E00E946107C70188
:10236000B6010E949C0880915A0390915B03A09152
:102370005C03B0915D0380936E0390936F03A09311
:102380007003B093710384E090E090931701809301
:10239000160170CE86EF91E00E94B2078091F6039D
:1023A000811131C280912F0481112DC280E092E011
:1023B0000E94B20788E192E00E94610760916E037B
:1023C00070916F0380917003909171030E949C083B
:1023D00080906E0390906F03A0907003B090710393
:1023E00020E030E040E151E4C501B4010E94C7168D
:1023F0009091740318160CF066C092609093740369
:102400000E945A142091740321FF2CC068E671E0E9
:102410000E94CD14BC01990F880B990B0E941716CE
:102420006B017C0181E392E00E94B2078EE492E0AE
:102430000E946107C701B6010E949C08C701B6014E
:102440000E94070601E020E030E040EE50E460E04A
:1024500070E080E291E40E945906809174038D7FC0
:102460008093740380917403827080937403C0908E
:102470007203D09073039FEFC91AD90AD0927303E5
:10248000C09272038DE293E00E9461070D2C000C54
:10249000EE08FF084AE0C701B601F7FE0DC06DE285
:1024A0008CE893E00E94AD0466277727CB016C1976
:1024B0007D098E099F094AE00E946E078BE491E036
:1024C0000E94610764CE91609093740340906A0308
:1024D00050906B0360906C0370906D03A5019401A4
:1024E00060E070E080EC90E40E94FB146B017C01E2
:1024F000C0926A03D0926B03E0926C03F0926D037A
:10250000A30192010E94FB1460936603709367031A
:102510008093680390936903C701B6019F7720E019
:1025200030E040E05FE30E94C71618160CF0D5C0FB
:1025300086E792E00E94B2076091560370915703BC
:1025400080915803909159039F7720E030E040E25A
:1025500051E40E94C71618160CF025C110926203B0
:1025600010926303109264031092650385E992E070
:102570000E94610742E0C501B4010E94C00781EBDF
:1025800092E00E94610760916A0370916B038091F1
:102590006C0390916D0342E00E94C0078FEB92E0C4
:1025A0000E946107609166037091670380916803E0
:1025B0009091690342E00E94C0078AEC92E00E9479
:1025C000610760916203709163038091640390914D
:1025D00065030E949C0826E636E646E950E46091D1
:1025E0006A0370916B0380916C0390916D030E945C
:1025F000CC166B017C012AE037ED43E25CE360918D
:1026000062037091630380916403909165030E945B
:10261000CC169B01AC01C701B6010E94FC146B01F2
:102620007C0123E333E343E150E46091660370915E
:10263000670380916803909169030E94CC169B0107
:10264000AC01C701B6010E94FC146B017C01C09271
:102650005603D0925703E0925803F092590382ED4B
:1026600092E00E946107C701B6010E949C08C090D9
:102670005603D0905703E0905803F0905903C701D8
:10268000B6019F772DEC3CEC4CE45EE30E946815AC
:1026900087FD11C060916A0370916B0380916C0398
:1026A00090916D039F772DEC3CEC4CEC5DE30E9428
:1026B000681587FF8DC01092560310925703109231
:1026C00058031092590310926A0310926B031092F0
:1026D0006C0310926D030E94DB06109174031E7F41
:1026E0001093740320916E0330916F034091700337
:1026F0005091710360E070E080EC90E40E94FB1464
:102700009F7720E030E040E05FE30E94681587FF9C
:10271000AECE60E070E084E393E40E9407061460AC
:102720001093740380917403182F1B7F82FF68C07D
:1027300083EF92E00E94B207C0906604D0906704D5
:10274000E0906804F090690420E030E048EC51E447
:1027500060E070E080E291E40E940401A70196012C
:1027600066E676E682E492E40E946D150E94DF152B
:1027700084EF93E00E94FB05A701960163E373E3F6
:102780008BEB92E40E946D150E94DF158DE294E0C0
:102790000E94FB050E94520360E070E084E393E432
:1027A0000E940706BDCFA701960160916203709158
:1027B000630380916403909165030E94FC1460930D
:1027C0006203709363038093640390936503CECE9A
:1027D00020E030E0A901C701B6010E94681500E0C1
:1027E000A701960187FF07C060E070E080E89FE3E3
:1027F0000E94590672CF60E070E080E89FEBF8CF4E
:102800001093740334CE65E070E080E090E00E94A5
:10281000200384E193E00E94B20729CE8F929F9219
:10282000AF92BF92CF92DF92EF92FF92CF93DF935E
:10283000EC01688179818A819B816115710581052F
:10284000910521F464E279ED8BE597E02DE133EF1A
:1028500041E050E00E946A1449015A019B01AC0119
:10286000A7EAB1E40E9489146B017C01ACEEB4EFDD
:10287000A50194010E949714DC01CB018C0D9D1DD4
:10288000AE1DBF1DB7FF03C00197A109B0488883E3
:102890009983AA83BB839F77DF91CF91FF90EF90BD
:1028A000DF90CF90BF90AF909F908F9008950E943F
:1028B0000E14089588E191E00E940E140895B0E08E
:1028C000A0E08093180190931901A0931A01B0938E
:1028D0001B010895052E97FB1EF400940E9481149D
:1028E00057FD07D00E949C1407FC03D04EF40C94B3
:1028F000811450954095309521953F4F4F4F5F4F34
:10290000089590958095709561957F4F8F4F9F4F5B
:1029100008950E94BE14A59F900DB49F900DA49F92
:10292000800D911D11240895B7FF0C9489140E9405
:102930008914821B930B0895A1E21A2EAA1BBB1BBC
:10294000FD010DC0AA1FBB1FEE1FFF1FA217B3077B
:10295000E407F50720F0A21BB30BE40BF50B661F91
:10296000771F881F991F1A9469F760957095809555
:1029700090959B01AC01BD01CF010895A29FB001CC
:10298000B39FC001A39F700D811D1124911DB29FA3
:10299000700D811D1124911D089597FB072E16F4CB
:1029A000009407D077FD09D00E94E71407FC05D0FA
:1029B0003EF4909581959F4F0895709561957F4F56
:1029C0000895EE0FFF1F0590F491E02D0994AA1BC6
:1029D000BB1B51E107C0AA1FBB1FA617B70710F00A
:1029E000A61BB70B881F991F5A95A9F7809590953C
:1029F000BC01CD0108955058BB27AA270E9413158A
:102A00000C948D160E947F1638F00E94861620F0D6
:102A100039F49F3F19F426F40C947C160EF4E095DB
:102A2000E7FB0C947616E92F0E949E1658F3BA170E
:102A3000620773078407950720F079F4A6F50C94D4
:102A4000C0160EF4E0950B2EBA2FA02D0B01B90184
:102A500090010C01CA01A0011124FF27591B99F014
:102A6000593F50F4503E68F11A16F040A22F232F20
:102A7000342F4427585FF3CF469537952795A79570
:102A8000F0405395C9F77EF41F16BA0B620B730B17
:102A9000840BBAF09150A1F0FF0FBB1F661F771F88
:102AA000881FC2F70EC0BA0F621F731F841F48F43D
:102AB000879577956795B795F7959E3F08F0B0CFC6
:102AC0009395880F08F09927EE0F979587950895AD
:102AD0000E94521608F481E008950E9481150C941A
:102AE0008D160E94861658F00E947F1640F029F439
:102AF0005F3F29F00C94761651110C94C1160C947A
:102B00007C160E949E1668F39923B1F3552391F326
:102B1000951B550BBB27AA2762177307840738F04C
:102B20009F5F5F4F220F331F441FAA1FA9F335D0A9
:102B30000E2E3AF0E0E832D091505040E695001C5D
:102B4000CAF72BD0FE2F29D0660F771F881FBB1F17
:102B5000261737074807AB07B0E809F0BB0B802DF5
:102B6000BF01FF2793585F4F3AF09E3F510578F021
:102B70000C9476160C94C1165F3FE4F3983ED4F3A0
:102B8000869577956795B795F7959F5FC9F7880FF5
:102B9000911D9695879597F90895E1E0660F771F47
:102BA000881FBB1F621773078407BA0720F0621BD8
:102BB000730B840BBA0BEE1F88F7E09508950E9403
:102BC000E6156894B1110C94C11608950E94A616DA
:102BD00088F09F5798F0B92F9927B751B0F0E1F0DE
:102BE000660F771F881F991F1AF0BA95C9F714C08E
:102BF000B13091F00E94C016B1E008950C94C01657
:102C0000672F782F8827B85F39F0B93FCCF38695C6
:102C100077956795B395D9F73EF490958095709523
:102C200061957F4F8F4F9F4F0895E89409C097FBA0
:102C30003EF490958095709561957F4F8F4F9F4F93
:102C40009923A9F0F92F96E9BB279395F6958795D7
:102C500077956795B795F111F8CFFAF4BB0F11F49A
:102C600060FF1BC06F5F7F4F8F4F9F4F16C0882341
:102C700011F096E911C0772321F09EE8872F762F77
:102C800005C0662371F096E8862F70E060E02AF0B8
:102C90009A95660F771F881FDAF7880F96958795A4
:102CA00097F90895990F0008550FAA0BE0E8FEEF79
:102CB00016161706E807F907C0F012161306E40700
:102CC000F50798F0621B730B840B950B39F40A26F9
:102CD00061F0232B242B252B21F408950A2609F4D7
:102CE000A140A6958FEF811D811D089597F99F67DB
:102CF00080E870E060E008959FEF80EC0895002484
:102D00000A941616170618060906089500240A9450
:102D100012161306140605060895092E0394000CD6
:102D200011F4882352F0BB0F40F4BF2B11F460FF65
:102D300004C06F5F7F4F8F4F9F4F089557FD90588E
:102D4000440F551F59F05F3F71F04795880F97FB6F
:102D5000991F61F09F3F79F0879508951216130629
:102D60001406551FF2CF4695F1DF08C01616170658
:102D70001806991FF1CF869571056105089408958D
:102D8000E894BB2766277727CB0197F908950E941F
:102D9000521608F48FEF08950E94DF160C948D16DA
:102DA0000E947F1638F00E94861620F0952311F0BD
:102DB0000C9476160C947C1611240C94C1160E9467
:102DC0009E1670F3959FC1F3950F50E0551F629FBB
:102DD000F001729FBB27F00DB11D639FAA27F00D74
:102DE000B11DAA1F649F6627B00DA11D661F829F9B
:102DF0002227B00DA11D621F739FB00DA11D621F80
:102E0000839FA00D611D221F749F3327A00D611D9C
:102E1000231F849F600D211D822F762F6A2F11247E
:102E20009F5750409AF0F1F088234AF0EE0FFF1FB1
:102E3000BB1F661F771F881F91505040A9F79E3F08
:102E4000510580F00C9476160C94C1165F3FE4F3A4
:102E5000983ED4F3869577956795B795F795E7955E
:102E60009F5FC1F7FE2B880F911D9695879597F967
:102E700008950E945216880B990B089581E090E006
:0A2E8000F8940C944317F894FFCF68
:102E8A00FFFFFFFF00E10000000000006203620391
:102E9A0062036203620301000100000000C1808135
:102EAA0000000004050607FFFF03010200000000FE
:102EBA0000AD042804CE04C3041405D204F00400AF
:102ECA00000000A90600000000C2060D0A006E619B
:102EDA006E00696E66006F7666002F696E69744DC2
:102EEA006F746F72732829002F696E6974456E6357
:102EFA006F64657273282900417474616368696E2E
:102F0A00672072616E676566696E646572204953EF
:102F1A005200417474616368696E672072616E67FA
:102F2A006566696E6465722050435F495352006951
:102F3A00646C652829007365744C4544282900533C
:102F4A00544154455F424547494E00535441544504
:102F5A005F53454E53450053544154455F544849C5
:102F6A004E4B0072616E676566696E6465722064B5
:102F7A006973743D200053544154455F41435400E2
:102F8A00636865636B4D6F74696F6E204953206384
:102F9A006F6D706C657465004265666F726520437B
:102FAA00686F6F73696E672C206D656173203D20B1
:102FBA000077616E646572436F6E74726F6C6C65D4
:102FCA00723A20206163746976617465640077617E
:102FDA006E646572436F6E74726F6C6C65723A20C0
:102FEA002073656C6563746564207475726E416ED6
:102FFA00676C653D2000617070726F616368436F32
:10300A006E74726F6C6C65723A20206163746976B3
:10301A006174656400617070726F616368436F6E9A
:10302A0074726F6C6C65723A20206D6561733D2015
:10303A0000202065545F64656C7461543D20002053
:10304A00206464745F65543D200020206945743D06
:10305A002000617070726F616368436F6E74726F83
:10306A006C6C65723A2020616374756174696F6E65
:10307A003D200077616C6C466F6C6C6F77436F6EA6
:10308A0074726F6C6C65723A202061637469766140
:10309A0074656400636865636B4D6F74696F6E2055
:1030AA004E4F5420636F6D706C6574650074657360
:0E30BA0074497465726174696F6E3D20000088
:00000001FF
